:020000040800F2
:10000000788F002055020008510B000823050008D6
:100010004F0B000829040008151600080000000016
:100020000000000000000000000000009D0100082A
:100030002B04000800000000F1010008191200085C
:100040006F0200086F0200086F0200086F020008CC
:100050006F0200086F0200086F0200086F020008BC
:100060006F0200086F0200086F0200086F020008AC
:100070006F0200086F0200086F0200086F0200089C
:100080006F0200086F0200086F0200086F0200088C
:100090006F0200086F0200086F0200086F0200087C
:1000A0006F0200086F0200086F0200086F0200086C
:1000B00019130008391300086F0200086F020008C6
:1000C0006F0200086F0200086F0200086F0200084C
:1000D0006F0200087D1300086F0200081D1400085D
:1000E0006F0200086F0200086F0200086F0200082C
:1000F0006F0200086F0200086F0200086F0200081C
:100100006F0200086F0200086F0200086F0200080B
:100110006F0200086F0200086F0200086F020008FB
:100120006F0200086F0200086F0200086F020008EB
:100130006F0200086F0200086F0200086F020008DB
:100140006F0200086F0200086F0200086F020008CB
:100150006F0200086F0200086F0200086F020008BB
:100160006F0200086F0200086F0200086F020008AB
:100170006F0200086F0200086F0200086F0200089B
:100180006F0200086F020008DFF80CD000F098F84A
:1001900000480047A1180008788F00202A4B1968F2
:1001A0000868B0E8F04F80F30988BFF36F8F4FF015
:1001B000000080F3118870470000000006480068C6
:1001C000006880F3088862B661B6BFF34F8FBFF353
:1001D0006F8F00DF00BF00BF08ED00E0DFF80C000C
:1001E000016841F470010160704700BF88ED00E0D4
:1001F000EFF30980BFF36F8F134B1A681EF0100FD7
:1002000008BF20ED108A20E9F04F106008B44FF0CD
:10021000500080F31188BFF34F8FBFF36F8F02F050
:1002200005F94FF0000080F3118808BC19680868D0
:10023000B0E8F04F1EF0100F08BFB0EC108A80F34A
:100240000988BFF36F8F70474C000020EFF30580E3
:10025000704700000648804706480047FEE7FEE773
:10026000FEE7FEE7FEE7FEE7FEE7FEE7FEE7FEE766
:10027000BD1200088901000840EA01039B0703D072
:1002800009E008C9121F08C0042AFAD203E011F8D5
:10029000013B00F8013B521EF9D27047D2B201E097
:1002A00000F8012B491EFBD270470022F6E710B57B
:1002B00013460A4604461946FFF7F0FF204610BDD4
:1002C000064C074D06E0E06840F0010394E80700A3
:1002D00098471034AC42F6D3FFF75AFF842D00083C
:1002E000A42D00081CB50121112000F05DFD0021A6
:1002F00001208DF804108DF8070000908DF805009E
:1003000069460B4800F0BAF804200A4C0090694690
:10031000204600F0B3F8082100916946204600F01D
:10032000ADF8102100916946204600F0A7F81CBDE9
:10033000000002400010024070B50121374800F073
:10034000E9F800B10120364C364D217840EA4100F1
:1003500020700421284600F0DDF808B1012100E0FA
:100360000021607841EA400060700821284600F0D2
:10037000D1F808B1012100E00021A07841EA400055
:10038000A0701021284600F0C5F800B10120E178E6
:1003900040EA4100C0B2E0702178A9B10022617842
:1003A000A1B10021A3789BB1002598B100230020C2
:1003B000C2B1B9B1207A78B1002020722271617186
:1003C000A571E371052070BD0122E8E70121E9E78D
:1003D0000125EAE70123EAE722716171A571E37162
:1003E000002070BD012626720AB126794EB109B1EE
:1003F000667946B10DB1A6793EB14BB1E67936B119
:1004000006E0012004E0022002E0032000E00420D6
:1004100022716171A571E37170BD0000000002409E
:100420001400002000100240FEE77047074808490A
:100430000068B0FBF1F000B901204FF0E021401E50
:10044000486100208861052008617047380000205D
:1004500040420F0010B503464FF47A7402E0204684
:1004600000F003F85B1EFAD210BD4FF0E02102E06D
:100470000A69D203FCD5401EFAD27047F0B50022BB
:1004800001274FF0030C0B6807FA02F52B40AB4233
:100490002CD1066853000CFA03F4A64306600E79CB
:1004A000D0F800E09E4046EA0E0606600E79012E66
:1004B00001D0022E12D18668A64386604E79D0F80C
:1004C00008E09E4046EA0E0686604668AE434660F7
:1004D00045688E799640B6B235434560C568A543F8
:1004E000C560CC799C40C3681C43C460521C102A70
:1004F000C9D3F0BD4B07DB0E9A40C90810B500EB1D
:100500008100016A0F249C40A1430162016A1143EA
:10051000016210BD0246002012690A4200D001208B
:100520007047FEE710B5012186B0480500F048FC91
:100530000121022000F038FC4FF4407004900220AA
:100540008DF814008DF8150001208DF816001E4C52
:100550008DF8170004A92046FFF790FF0422082118
:100560002046FFF7C7FF042209212046FFF7C2FFFC
:10057000164C204600F02CFA0121204600F0DDFA4E
:100580000021204600F0D9FA0121204600F0FCF9B4
:100590000021ADF808102015ADF80A000001ADF8F3
:1005A0000C00ADF804104CF250304BF6FF72009086
:1005B000ADF806206946204600F056FA0121204693
:1005C00000F0FBF906B010BD0004024000540040EA
:1005D00070B50E4C4FF40031204600F02FFA18B1E0
:1005E0000121204600F020FA094D2046294600F05E
:1005F00025FA18B12946204600F0DCF903481430EA
:10060000008802481830008870BD00000054004087
:10061000000400102DE9F0414006060EFFF7D8FF58
:100620001F4C4FF400371F4D01E0641E05D03946C2
:10063000284600F003FA0028F7D10121284600F0EF
:10064000E9F9194800F0CAF840B9002231462846B5
:1006500000F069FA154800F0C1F8C8B10121284638
:1006600000F0E2F9124C2846214600F0E7F918B1F3
:100670002146284600F09EF90A48143000880948AF
:1006800018300088FFF7A4FF4FF0FF30BDE8F0817D
:100690000121284600F0C8F9FFF79AFF0020F5E78E
:1006A000400D0300005400400100030082000700D9
:1006B000000400102DE9F047400691468846040EDC
:1006C000FFF786FF384E0121304600F0A3F9374D81
:1006D000284600F083F8344F4FF0FF3A183788BBB4
:1006E00000222146304600F01EFA314800F076F82C
:1006F00040BB4146304600F01EFA2D48801C00F0F9
:100700006DF8F8B90121304600F084F9284600F070
:1007100065F8B8B901222146304600F004FA681C99
:1007200000F05CF870B938880021304600F022F9FA
:100730000121304600F078F9DFF87880012544F691
:10074000206402E015E0641E13D04146304600F0FC
:1007500075F9A842F7D1304600F0E2F989F80000B7
:100760000121304600F006F9FFF732FF0020BDE816
:10077000F0870121304600F057F90F4C30462146F2
:1007800000F05CF918B12146304600F013F9064834
:100790001430008838880121304600F0EBF8FFF76C
:1007A00017FF5046E3E7000000540040010003003B
:1007B00082000700400000100004001070B50546DC
:1007C0000824E0B2FFF726FF10B90DB1E0B2A84748
:1007D000641CA4B2772CF4D970BD000070B5064635
:1007E00044F62064074D01E0641E07D031462846D8
:1007F00000F0D4F80028F7D0002070BD4FF0FF3093
:1008000070BD0000005400402DE9F04140061D4637
:1008100016468846040EFFF7DBFE274F01213846B7
:1008200000F0F8F82548FFF7D9FFF0B9002221467B
:10083000384600F078F92248FFF7D0FFA8B94146C2
:10084000384600F078F9DFF8788008F10208404671
:10085000FFF7C4FF48B9002423E0315D384600F0BB
:100860006AF94046FFF7BAFFC8B10121384600F0E7
:10087000DBF8144C3846214600F0E0F818B1214668
:10088000384600F097F80C48143000880A481830B1
:100890000088FFF79DFE4FF0FF30BDE8F081641C3B
:1008A000E4B2AC42D9D30121384600F0BDF8FFF7DD
:1008B0008FFE0020F1E7000000540040010003001B
:1008C00082000700000400102DE9F04140061546A3
:1008D0000E46070EFFF77CFE224C0121204600F059
:1008E00099F82148FFF77AFFD0B90022394620460F
:1008F00000F019F91D48FFF771FF88B9314620460D
:1009000000F019F9194EB61C3046FFF767FF38B9E9
:100910002946204600F00FF93046FFF75FFFC8B1C7
:100920000121204600F080F8114D2046294600F0B4
:1009300085F818B12946204600F03CF809481430E3
:100940000088084818300088FFF742FE4FF0FF305B
:10095000BDE8F0810121204600F066F8FFF738FE7F
:100960000020F5E70054004001000300820007006A
:10097000000400100029018802D041F4806101E0E8
:1009800021F48061018070470029818C02D021F020
:10099000100101E041F010018184704703460020FE
:1009A0009A8A1B8B42EA034222F07F42914300D194
:1009B00001207047C943818270470029018802D015
:1009C00041F0010101E021F00101018070470000C8
:1009D0000D4910B5884202D101214C050AE00B49AE
:1009E000884202D101218C0504E0094988420AD1DC
:1009F0000121CC05204600F0EFF92046BDE810406B
:100A0000002100F0E9B910BD00540040005800403A
:100A1000005C00400029018802D041F4807101E0AF
:100A200021F48071018070470029018802D041F4CF
:100A3000007101E021F40071018070470CB502469D
:100A4000002000920A0F21F07F41019202D0009A0B
:100A5000143202E0009A090C1832009212680A421D
:100A600000D001200CBD00007FB5044680880D46F3
:100A700020F03F06684600F0C7F927490298B0FB0E
:100A8000F1F189B20E43A680228822F00102228071
:100A9000224B2A689A421BD85200B0FBF2F080B277
:100AA000042800D20420491C2184A083208840F01F
:100AB0000100208020884FF6F5310840A9886A8916
:100AC000114301432180A8892989084320817FBDE2
:100AD000EB88A3F53F46FF3E0BD002EBC20303EBCE
:100AE0000212B0FBF2F080B240F48040020506D062
:100AF00007E002EB4202B0FBF2F080B2F6E740F012
:100B000001004FF4967251434FF47A72B1FBF2F147
:100B100040F40040C7E7000040420F00A0860100FB
:100B2000008AC0B2704712B141F0010101E001F04A
:100B3000FE0101827047018270470029018802D0BE
:100B400041F4004101E0C1F30E0101807047FEE76E
:100B50007047000030B50F23C27801780125FAB143
:100B6000144A126801F1E02102F4E062C2F5E06289
:100B7000C2F30722C2F10404D3404278A240847831
:100B80001C401443220181F80024007800F01F016A
:100B90008D404009800000F1E020C0F8005130BDD8
:100BA00001F01F0085404809800000F1E020C0F8F6
:100BB000805130BD0CED00E0024908430249086055
:100BC000704700000000FA050CED00E010B5074C7E
:100BD00000215A206180A080084600F06BFAA188AD
:100BE000BDE81040012000F065BA000004000020BC
:100BF00010B5074C002060805A20A080A068002813
:100C000005D100220121082001F0B0FCA06010BD38
:100C1000040000202DE9F04101F08AF9394E6FF00F
:100C200001073578FF2D1AD001F0E2FE0446F06886
:100C3000844214D335B1012D06D0022D08D0032DE6
:100C40000BD107E0384600E0022000F07FF804E016
:100C5000384600E0022000F089F85034F460FFF7D5
:100C60006BFB062815D2DFE800F014090E212603DD
:100C7000FF203070042000F089F80AE0384600F0C8
:100C800065F821A003E0022000F060F821A000F048
:100C90001BFD234F387800264FF4007808B3194D18
:100CA0003878AD1CAC1C01281BD109E0384600F097
:100CB0005DF81CA0EBE7022000F058F81CA0E6E766
:100CC00072B642461D491E48FFF7D6FA3E704146AD
:100CD0001A48FFF7EAFA62B622462946184800F099
:100CE00069FE184C2078002809D01748217801297E
:100CF00005D172B64146FFF7D8FA267062B6BDE854
:100D0000F0810000040000204B4559204B31204861
:100D10002D0D0A004B4559204B3220482B0D0A005F
:100D20001F0000204B4559204B3320562D0D0A0043
:100D30004B4559204B3420562B0D0A00AC0800209F
:100D4000AC0000201E000020AC04002010B50146BD
:100D5000054800F09AFD0448801E4188BDE8104017
:100D6000002000F0A7B900000600002010B50146E1
:100D7000054800F08AFD0448001F8188BDE8104046
:100D8000012000F097B900000800002001B50548D7
:100D90008068002804D000231A46694601F006FD49
:100DA00008BD000004000020044A0029116801D099
:100DB000014300E081431160704700003038024079
:100DC000044A0029116801D0014300E08143116009
:100DD0007047000040380240044A0029116801D0E1
:100DE000014300E081431160704700002038024059
:100DF000044A0029116801D0014300E081431160D9
:100E0000704700004438024070B5204B1968204CF0
:100E100011F00C0104D06610042903D0082903D076
:100E200004601BE0066019E0184A121F1168C1F344
:100E30008055116801F03F0115B1B6FBF1F101E0F9
:100E4000B4FBF1F114681268C4F388146143C2F36F
:100E50000142521C5200B1FBF2F1016019680F22ED
:100E600002EA11110B4A545C0168E14041601C68C0
:100E7000072505EA9424145D21FA04F484601B68B4
:100E800005EA5333D25CD140C16070BD08380240DE
:100E90000024F400260000202DE9FC4100258DF8F7
:100EA0000450FFF73FFB4020FFF7B4FB6C1E002807
:100EB0001AD039A000F008FC402001F0FFF83CA057
:100EC00000F002FC4148FFF779FC3FA000F0FCFB7A
:100ED0003F4800F0F9FB3F4800F0F6FB3EA000F071
:100EE000F3FB2046BDE8FC8149A000F0EDFB102299
:100EF00000214020FFF7E8FCA0B97922FE21402024
:100F0000FFF7E2FC70B9A02200214020FFF7DCFCD3
:100F100040B90A20FFF79EFA042201214020FFF782
:100F2000D3FC28B13FA000F0CFFB6FF00100D9E760
:100F300001AA00214020FFF7BDFB48B942A000F004
:100F4000C3FB9DF8040001F0B9F81FA000F0BCFB42
:100F500040A000F0B9FB4A4800F0B6FB002406268A
:100F6000102706EB8400C1B20F2C0CD88DF800506E
:100F70008DF801508DF802508DF8037004236A46F5
:100F80004020FFF741FC641CE4B2102CE9D33DA0E3
:100F900000F09AFB0020A5E7504341393638352050
:100FA0004552523A204E41434B2061742030780024
:100FB000202837626974292E205363616E203078AF
:100FC00030382D307837373A0D0A00009920000864
:100FD000B42C00083C2D0008466F756E64206164D7
:100FE00064723A2073657420534552564F5F5043E4
:100FF00041393638355F414444523720696E207399
:101000006572766F5F70776D2E680D0A00000000C4
:10101000504341393638353A206275732041434B8D
:101020000D0A000050434139363835204552523AB6
:1010300020726567697374657220696E69742066D1
:1010400061696C65640D0A004D4F4445313D30784F
:1010500000000000504341393638353A20353048D9
:101060007A2C20736572766F20706F776572206FAF
:101070006E20562B2F50574D207261696C0D0A005F
:10108000F82C0008504341393638353A204348306F
:101090002D434831352046756C6C2D4F46462C202B
:1010A0006E6F2050574D20756E74696C206B65799A
:1010B0000D0A0000B42900D9B4214FF4FA6251435B
:1010C000B422B1FBF2F101F5FA7189B2AFF30080FD
:1010D00008B50F2831D84FF4FA72914203D340F685
:1010E000C412914200D91146090344F62062B1FBB3
:1010F000F2F2B2F5805F01D340F6FF72062101EBF8
:101100008000C1B200208DF800008DF801008DF83C
:101110000220C2F303208DF8030004236A46402016
:10112000FFF772FB002808D004480178002904D199
:101130000121017002A000F0C7FA08BD1D000020C7
:101140005741524E3A205043413936383520505796
:101150004D20777269746520493243206661696C5D
:101160000D0A00000CB50022274900920192086880
:1011700040F4803008604FF4A043086800F4003069
:1011800001900098401C0090019810B90098984276
:10119000F3D10868800334D5012001901A4840300B
:1011A000026842F0805202601848026842F44042ED
:1011B00002601548083002680260026842F400428A
:1011C0000260026842F4A0520260031F104A1A60D3
:1011D0000A6842F080720A600A689201FCD50D49E3
:1011E00040F205720A60016821F0030101600168A4
:1011F00041F0020101600168C1F381010229FAD1C5
:101200000CBD01920CBD000000380240007000408F
:1012100008544007003C024010B5502080F311886C
:10122000BFF34F8FBFF36F8F01F0E8FB18B1044994
:101230004FF080500860002080F3118810BD00003E
:1012400004ED00E070B51A4D28681A4B1A4910F0E9
:101250000C0004D05E10042803D0082803D00B60D3
:101260001BE00E6019E0124A121F1068C0F3805490
:10127000106800F03F0014B1B6FBF0F001E0B3FBE2
:10128000F0F013681268C3F388135843C2F30142A5
:10129000521C5200B0FBF2F008602868064AC0F306
:1012A0000310121D105C0A68C2400A6070BD000085
:1012B000083802400024F40038000020124810B51D
:1012C000016841F4700101601048016841F00101BA
:1012D00001600E4A00210832116002680C4B1A406E
:1012E0000260031D0B4A1A60026822F48022026029
:1012F00006480C300160FFF735FF03494FF00060EE
:101300008039086010BD000088ED00E00038024020
:10131000FFFFF6FE1030002410B501218C07204697
:1013200000F01FF8002805D02046BDE8104001213C
:1013300000F014B810BD000010B5074C0121204684
:1013400000F00FF8002805D02046BDE8104001212C
:1013500000F004B810BD000000040040C943018241
:10136000704702460020138A92890B4202EA01026A
:1013700002D0002A00D00120704700002DE9F04182
:10138000224C0821204600F0A9F810B1204600F0B8
:1013900039F940F225584146204600F0A6F80128C8
:1013A00031D1204600F02EF9194EC2B24FF400712F
:1013B000F088002530B1884208D3F5801548FEF743
:1013C00074FF0AE00D2A08D00A2A06D0114F3A54B9
:1013D000401C83B2F3803A2A05D041462046BDE83E
:1013E000F04100F06BB800220B4804E017F802C08F
:1013F00000F802C0521C9A42F8DB8B4200D2C5545E
:1014000001207070D9E7BDE8F081000000100140B4
:101410001E000020AC060020AC0800202DE9F041A1
:10142000224C0821204600F059F810B1204600F067
:10143000E9F840F225584146204600F056F80128C8
:1014400031D1204600F0DEF8194EC2B24FF40071DF
:10145000B088002530B1884208D3B5801548FEF722
:1014600024FF0AE00D2A08D00A2A06D0114F3A5468
:10147000401C83B2B3803A2A05D041462046BDE8DD
:10148000F04100F01BB800220B4804E017F802C03E
:1014900000F802C0521C9A42F8DB8B4200D2C554BD
:1014A00001203070D9E7BDE8F0810000004800401D
:1014B0001E000020AC020020AC0400200A0A01211A
:1014C0009140C943018070470029818902D041F4CD
:1014D000005101E021F40051818170470246002053
:1014E00012880A4200D00120704770B501F01F0534
:1014F00001260024C1F3421306FA05F2012B0FD096
:10150000022B0FD0838A4FEA11210088134206FA7A
:1015100001F600EA060001D000B10124204670BDAA
:101520008389F0E7038AEEE710B5C1F3421301F0B7
:101530001F040121A140012B07D0022B07D014303A
:10154000002A026805D00A4304E00C30F8E71030A6
:10155000F6E78A43026010BD7FB50446008A0D4657
:10156000C98820F4405001432182A08941F20C61D6
:101570008843A9882A8911436A8902431143A181BA
:10158000A08A20F44071A8890843A0826846FFF72A
:101590003BFC1A48844202D01948844201D1039886
:1015A00000E00298A189090400EBC00101EB0010E2
:1015B000296801D5490000E08900B0FBF1F0642200
:1015C000B0FBF2F109010B096FF018056B4300EB5A
:1015D0008300A3891D044FF0320306D503EBC0003E
:1015E000B0FBF2F000F0070005E003EB0010B0FBE9
:1015F000F2F000F00F00084320817FBD0010014091
:10160000001401408088C0F308007047C1F308014E
:1016100081807047FEE70000F0B50646012187B0E3
:101620000846FFF7C1FB01211020FFF7E1FB4FF453
:10163000C060049002208DF8140001258DF815502B
:1016400000241F4F8DF816408DF8175004A9384616
:10165000FEF714FF072209213846FEF74BFF072249
:101660000A213846FEF746FF0C20ADF80A00154F58
:10167000ADF806400096ADF80840ADF80440ADF86E
:101680000C4069463846FFF767FF25208DF81800A3
:101690008DF819408DF81A508DF81B5006A8FFF7E9
:1016A00059FA012240F225513846FFF73DFF01214A
:1016B0003846FFF709FF304600F024F807B0F0BDC8
:1016C00000000240001001402DE9F041040010D05C
:1016D000094E0A4D0A4F217800290AD0304600F001
:1016E00003FDA87818B12178384600F0FDFC641C91
:1016F000F1E7BDE8F0810000001001401E0000206D
:10170000004400402DE9F0418046012186B00846A2
:10171000FFF74AFB01214804FFF752FB02208DF836
:1017200014008DF815000024174F0C258DF8164075
:10173000012604958DF8176004A93846FEF79EFE31
:10174000072202213846FEF7D5FE0722032138463C
:10175000FEF7D0FEADF80440ADF80640ADF8084005
:10176000ADF80C40094CCDF80080ADF80A50694640
:101770002046FFF7F1FE01212046FFF7A5FE0448B1
:10178000867006B0BDE8F0810000024000440040D1
:101790001E000020F0B5064687B001210220FFF7A9
:1017A00003FB01218804FFF70BFB4FF4406004901A
:1017B00002208DF8140001258DF8155000241E4FCD
:1017C0008DF816408DF8175004A93846FEF756FEDE
:1017D00007220A213846FEF78DFE07220B213846E4
:1017E000FEF788FE0C200096ADF80A00134EADF807
:1017F0000640ADF80840ADF80440ADF80C4069462D
:101800003046FFF7A9FE27208DF818008DF8194003
:101810008DF81A508DF81B5006A8FFF79BF901228E
:1018200040F225513046FFF77FFE01213046FFF799
:101830004BFE07B0F0BD000000040240004800402D
:1018400070B5094D04000ED00AE080212846FFF74C
:1018500045FE0028F9D021782846FFF7D7FE641C02
:1018600020780028F1D170BD0048004002E008C88F
:10187000121F08C1002AFAD170477047002001E00A
:1018800001C1121F002AFBD170470288511801D5EF
:10189000002102E0B42900DDB4210180704700007E
:1018A0001CB5FFF7CFFC4FF44070FFF785F9FEF74A
:1018B000BDFDFEF717FD4FF4E130FFF7ADFE4FF42D
:1018C0001650FFF767FF17A0FFF7FEFE16A0FFF701
:1018D000FBFE1DA0FFF7F8FEFFF78AF9FFF7DCFA21
:1018E00010B121A0FFF7F0FE00242BA0FFF7ECFEC3
:1018F00029A0FFF7A5FFC820FEF7ACFD641C032C50
:10190000F3D329490320CDE900018202002327A156
:10191000274801F033F8012800D0FEE700F04AFD27
:10192000FEE700000D0A000047494D42414C2B469E
:1019300052454552544F533A204932433120504288
:10194000382F5042390D0A00484F4D453A204B314F
:101950002B4B32206F722055415254202252535447
:101960003A220D0A000000005741524E3A205043DF
:101970004139363835206E6F742072656164793B69
:1019800020736572766F206D6179206E6F74206DA3
:101990006F76650D0A00000053544D3332524541B5
:1019A00044590D0A000000000000002070747A0005
:1019B000B120000870B514460D4600286BD00178A0
:1019C000002968D06FF00102482926D0562943D05B
:1019D000522960D1417853295DD1817854295AD157
:1019E000C0783A2857D1002028805A2020802888A3
:1019F000B42805D9B42028802188B42900D92080B2
:101A000029880020FFF756FB21880120FFF752FBB1
:101A100021A0BDE87040FFF757BE41782D290ED0B8
:101A20002B2938D180783A2835D102212846FFF772
:101A30002CFF29880020FFF73DFB1AA0E9E78078FA
:101A40003A2828D111462846FFF71FFF2988002091
:101A5000FFF730FB16A0DCE741782D290ED02B29AB
:101A600019D180783A2816D102212046FFF70DFFC0
:101A700021880120FFF71EFB10A0CAE780783A28D2
:101A800009D111462046FFF700FF21880120FFF70A
:101A900011FB0DA0BDE770BD554152542052535467
:101AA0000D0A00005541525420482B0D0A00000039
:101AB0005541525420482D0D0A0000005541525402
:101AC00020562B0D0A0000005541525420562D0D72
:101AD0000A0000002DE9F041184E0F460446F56853
:101AE0003068001D00F016FB38B9306890F82C10F3
:101AF00001208840316981433161601C07D137B1D1
:101B00003168BDE8F0410E48091D00F03CBB30686B
:101B10002C44AC424460316805D2B06BBDE8F04162
:101B2000091D00F018BB706B091D00F014FBB06AB2
:101B3000844200D2B462BDE8F08100004C00002075
:101B4000600B00202DE9F041054600F029FB2E4EE8
:101B5000B068401CB06030682C4F10B1706940B361
:101B60002DE03560B068012829D1002404EB840001
:101B700007EB800000F0E1FA641C052CF6D3234843
:101B8000643000F0DAFA2148783000F0D6FA1F48C5
:101B90008C3000F0D2FA1D48A03000F0CEFA1B487D
:101BA000B43000F0CAFA1948643070631430B0637E
:101BB00005E03068E96AC06A884200D83560706A1A
:101BC0000121401C7062E86A326981401143316131
:101BD00000EB800007EB8000291D00F0D4FA00F034
:101BE000FFFA706900280CD03068E96AC06A884240
:101BF00007D207494FF080500860BFF34F8FBFF303
:101C00006F8FBDE8F08100004C000020AC0A00207E
:101C100004ED00E070B5124E124D1CE000F0FEFB2A
:101C2000306820B1002400F0D9FFA4B901E00124FC
:101C3000F9E700F0B5FAF068C468201D00F06AFA10
:101C4000A868401EA8606868401E686000F0C8FA76
:101C5000204600F052F868680028DFD170BD00000F
:101C60004C0B00204C00002030B4026C0B46002AC4
:101C70000BD0C1681144C1604468A14201D301681E
:101C8000C16030BC1846FEF7F7BA30BC70472DE98A
:101C9000F041856B174604460026026C82B1C7B13D
:101CA000E068FEF7E9FAE168206C091AE160226851
:101CB000914202D26168081AE060022F16D017E044
:101CC0002068A8B9606800F003FF06460020606045
:101CD0000EE0A068FEF7D0FA216CA0680844A0606E
:101CE0006168884204D32068A06001E005B16D1EE0
:101CF0006D1CA5633046BDE8F08110B50446006B4D
:101D000000F082FA2046BDE8104000F07DBA0000E5
:101D100010484FF40041420706D0C01D0D4920F085
:101D20000700411AC1F500410B4A00230144C2E9F2
:101D300000030839103A21F0070111604B600B6075
:101D40000B1AC0E9001393604FF000405360D0605D
:101D500070470000740B002098000020074E4FF0E1
:101D60008054074DFFF756FF30680128FAD92C60E0
:101D7000BFF34F8FBFF36F8FF4E70000AC0A002072
:101D800004ED00E02DE9F0479A46DDE9098481463B
:101D90006FF00303206B03EB82021044089D20F0D8
:101DA0000706700707D0502080F31188BFF34F8FCC
:101DB000BFF36F8FFEE723180A5C83F834200A5CB8
:101DC00012B1401C0A28F6D3002784F83D70052D77
:101DD00000D30425E562C4E91057201D00F0B8F9CE
:101DE00004F1180000F0B4F92461C5F10500646243
:101DF000A061A76484F84C7052464946304600F012
:101E000035F92060B8F1000F01D0C8F80040BDE8F6
:101E1000F087000030B5114900E011460A6882429F
:101E2000FBD34B685C18844203D140681844486077
:101E3000084643681C18944209D1084C103C246899
:101E4000A24209D052681A4442600A6812680260CD
:101E5000814200D0086030BD0460F9E7980000209E
:101E600010B5044600F09CF9A06B20B1002400F0EE
:101E7000B7F9204610BD0124F9E700000648416B80
:101E8000096829B1416BC968C968496881627047AE
:101E90004FF0FF31FAE700004C000020084840688E
:101EA000401C4FF0500080F3118804D0BFF34F8FD7
:101EB000BFF36F8FFEE7BFF34F8FBFF36F8FFEE768
:101EC000A00000202DE9F041044600F069F994F9E2
:101ED000455004F1240609E0606A48B1304600F03C
:101EE00043FE08B100F0F4F96D1E6DB2002DF3DC75
:101EF0004FF0FF3684F8456000F072F900F050F9B9
:101F000094F9445004F1100709E0206948B13846BB
:101F100000F02AFE08B100F0DBF96D1E6DB2002D55
:101F2000F3DC84F84460BDE8F04100F059B90000EA
:101F3000114808B58068002812D000231A46694667
:101F400000F038FB01280BD19DF80010C01E0529B8
:101F500006D2DFE801F006090B0E0300FEF736FE9D
:101F600008BDFEF7F3FE08BD0220FAE7FEF7FEFE0D
:101F700008BD0220FAE70000040000202DE9F0412E
:101F80000546002600F04AFA314F386808B9FFF7D5
:101F9000BFFEF86805424BD1C5B3083568070ED0BF
:101FA00005F00700C0F108000544680707D050207D
:101FB00080F31188BFF34F8FBFF36F8FFEE72DB310
:101FC0007868854234D8224910310846046801E017
:101FD000214604466068A84202D220680028F7D152
:101FE0003868844224D00E6820680860606808362B
:101FF000411B10290FD96019420708D0502080F3E7
:102000001188BFF34F8FBFF36F8FFEE710E0416081
:102010006560FFF7FFFE61687868401A7860BA680B
:10202000904200D2B860F86801430020C4E9000182
:1020300000F0D4FD700707D0502080F31188BFF363
:102040004F8FBFF36F8FFEE73046BDE8F081000091
:10205000880000200449086818B10868426C521CC6
:1020600042640868704700004C00002010B5031F50
:102070004FF080741C601B1F21F001011960191FB3
:10208000044B0B6014390A60091F6FF002024438D8
:102090000A6010BD9D1E000810B5044603A0FFF79E
:1020A00013FB2046BDE8104000F008B8203078004F
:1020B000FEF7B0FD012000F0E5F8F9E7094908B5A1
:1020C00001EB101200F00F0012788DF80020085C70
:1020D0008DF8010000208DF802006846FFF7F4FA41
:1020E00008BD0000A02C000870B50D460646084C3F
:1020F00001E0641E0BD080213046FFF7EFF9002885
:10210000F7D029463046BDE87040FFF77FBA70BD72
:1021100020A10700D0E9013201699A60D0E90123CA
:102120005A604A68824201D182684A600022026194
:102130000868401E08607047704700F108014FF0C2
:10214000FF32C0E90112C1600161002101607047E6
:1021500000210161704730B50C68621C02D000F1AB
:10216000080202E0026904E01A4653681D68A542AD
:10217000FAD953684B6099608A60516008610168C0
:10218000491C016030BD42684A6093688B60936867
:102190005960916008610168491C01607047000046
:1021A000502080F31188BFF34F8FBFF36F8F0A4920
:1021B0004868401C486001280CD10848006810F0AD
:1021C000FF0F07D0502080F31188BFF34F8FBFF36C
:1021D0006F8FFEE770470000A000002004ED00E0D4
:1021E0000849486828B1401E486001D180F3118831
:1021F0007047502080F31188BFF34F8FBFF36F8F6C
:10220000FEE70000A000002070B5002827D0144D84
:10221000A0F108046068E968084207D1502080F303
:102220001188BFF34F8FBFF36F8FFEE722683AB17B
:10223000502080F31188BFF34F8FBFF36F8FFEE7FD
:102240008843606000F0EAF8606869680844686084
:102250002046FFF7DFFDBDE8704000F0BFBC70BD59
:102260008800002006484FF47A710068B0FBF1F155
:102270004FF0E020491E41610721016170470000D5
:102280003800002010B5020014D00F48006B38B1A0
:10229000502080F31188BFF34F8FBFF36F8FFEE79D
:1022A00000F0BCF800211046FFF714FC00F096FC8B
:1022B000002807D105494FF080500860BFF34F8FC9
:1022C000BFF36F8F10BD00004C00002004ED00E054
:1022D00001490120C86170474C00002010B50C4630
:1022E00050B1094909681831FFF735FF2046BDE8AC
:1022F00010400121FFF7EEBB502080F31188BFF39F
:102300004F8FBFF36F8FFEE74C00002070B50400C5
:1023100039D01D4DE06A2968C96A884233D2A06964
:10232000002804DB2868C06AC0F10500A061E06AEB
:10233000164E00EB8000616906EB800081421FD1E0
:10234000201DFFF7E7FE012150B9E06A00EB800293
:1023500056F8222022B92A6901FA00F082432A6144
:102360002868C06AE0622A6981401143296100EB54
:10237000800006EB8000211DBDE87040FFF703BF21
:102380002868C06AE06270BD4C000020AC0A0020E2
:1023900028B107490A6A0260C96841607047502045
:1023A00080F31188BFF34F8FBFF36F8FFEE70000FC
:1023B0004C0000201CB515480024CDE90040234600
:1023C000822213A1144800F0D9FA012809D0401C38
:1023D0001AD1502080F31188BFF34F8FBFF36F8F56
:1023E000FEE7502080F31188BFF34F8FBFF36F8F4C
:1023F00006484FF0FF312C38816201214161C460F1
:10240000BDE81C4000F040B81CBD00007800002072
:1024100049444C45000000005D1D00080248016B66
:10242000491C0163704700004C000020144A106BE7
:1024300010B10120D06170470020D06110691149AE
:10244000B0FA80F0C0F11F0000EB800051F820309E
:102450006BB101EB800000F10803416849684160FD
:10246000994201D149684160C868106070475020A6
:1024700080F31188BFF34F8FBFF36F8FFEE700002B
:102480004C000020AC0A00201CB533480168334AD8
:10249000914207D1502080F31188BFF34F8FBFF3D3
:1024A0006F8FFEE700682D49491E884207D15020F2
:1024B00080F31188BFF34F8FBFF36F8FFEE728497A
:1024C00008780190FF20087008788DF800009DF8CA
:1024D00000009DF8002000F0F000904207D050204E
:1024E00080F31188BFF34F8FBFF36F8FFEE79DF826
:1024F00000001C4A00F0500010700720906007E0B8
:102500009068401E90609DF8000040008DF800002B
:102510009DF800000006F3D4107A000200F4E06099
:102520009060019808700C482030016841F47001F7
:102530000160016841F070410160FFF793FE0020E7
:102540005060FDF74BFE0848016841F040410160D2
:10255000FDF734FE00201CBD00ED00E071C20F410C
:1025600000E400E0A000002034EF00E070B50E466B
:10257000050013D0D6B105FB06F04830FFF7FEFC8E
:10258000040009D004F1480120468EB10160C0E981
:102590000F56012100F0C6F8204670BD502080F390
:1025A0001188BFF34F8FBFF36F8FFEE70020E4E782
:1025B0000060ECE72DE9FF4F83B09B468A4604009C
:1025C0004FF0000603D0BAF1000F08D011E0502000
:1025D00080F31188BFF34F8FBFF36F8FFEE7206C3E
:1025E00038B1502080F31188BFF34F8FBFF36F8F46
:1025F000FEE700F0EFF9DFF828814FF000094FF017
:10260000805748B9059838B1502080F31188BFF33E
:102610004F8FBFF36F8FFEE7FFF7C2FDA56B45B38A
:1026200051462046E668FFF71FFBBBF1000F13D0B1
:10263000E660606A50B104F1240000F095FA28B118
:10264000C8F80070BFF34F8FBFF36F8FFFF7C8FD5F
:10265000012007B0BDE8F08F6D1EA563206810B99A
:10266000FFF7F8FC606020690028EFD004F110004B
:10267000E3E7059808B11EB106E0FFF7B1FD27E0DA
:102680006846FFF785FE0126FFF7AAFDFFF7C6FEA5
:10269000FFF786FD94F94400401C01D184F8449072
:1026A00094F94500401C01D184F84590FFF798FD4E
:1026B00005A9684600F02CF9002820460AD0FFF74B
:1026C00001FC00F08BFA2046FFF7CAFB0028A3D0DC
:1026D0000020BEE7FFF7C4FBD8B1206830B9FFF790
:1026E0005FFD6068FFF712FEFFF77AFD04F124003A
:1026F0000599FFF7F3FD2046FFF7E4FB00F06EFAC3
:10270000002889D1C8F80070BFF34F8FBFF36F8FD7
:1027100082E72046FFF7D6FB00F060FA7CE7000076
:1027200004ED00E070B50D46040025D0FFF738FD3C
:10273000D4E90F20216802FB001161600021A16330
:102740002168A1600A46D4E90F01401E00FB012167
:10275000E16021464FF0FF3001F8440F487004F16A
:1027600010008DB1FFF7E9FC04F12400FFF7E5FC50
:10277000FFF736FD012070BD502080F31188BFF3B4
:102780004F8FBFF36F8FFEE721690029F0D000F073
:10279000EBF90028ECD004494FF080500860BFF3FB
:1027A0004F8FBFF36F8FE3E704ED00E02DE9FF4F9C
:1027B00083B01F468B4604004FF0000603D0BBF1E8
:1027C000000F08D011E0502080F31188BFF34F8F25
:1027D000BFF36F8FFEE7206C38B1502080F3118873
:1027E000BFF34F8FBFF36F8FFEE7022F0AD1E06B6D
:1027F000012807D0502080F31188BFF34F8FBFF31B
:102800006F8FFEE700F0E6F8DFF800914FF0000A66
:102810004FF0805848B9059838B1502080F311889E
:10282000BFF34F8FBFF36F8FFEE7FFF7B9FCA06BCD
:10283000E16B884205D3022F03D00598C8B1DEB101
:102840001EE03A4659462046FFF721FA616A19B15F
:1028500004F1240000F088F928B1C9F80080BFF322
:102860004F8FBFF36F8FFFF7BBFC012007B0BDE8B0
:10287000F08FFFF7B5FC21E06846FFF789FD0126E0
:10288000FFF7AEFCFFF7CAFDFFF78AFC94F944009E
:10289000401C01D184F844A094F94500401C01D1AA
:1028A00084F845A0FFF79CFC05A9684600F030F8C5
:1028B00030B12046FFF706FB00F090F90020D5E785
:1028C000FFF76EFCA06BE16B884201D1012500E0AF
:1028D0000025FFF785FC95B104F110000599FFF77D
:1028E000FDFC2046FFF7EEFA00F078F900289CD1B5
:1028F000C9F80080BFF34F8FBFF36F8F95E7204675
:10290000FFF7E0FA00F06AF98FE7000004ED00E05D
:1029100070B50D46040019D005B3FFF741FC164A07
:10292000D06829684B1C0FD02368126A934202D0EA
:10293000626882421AD96268801A884216D2081ADE
:1029400028602046FFF724FD002410E0502080F38B
:102950001188BFF34F8FBFF36F8FFEE7502080F3D6
:102960001188BFF34F8FBFF36F8FFEE70124FFF78E
:1029700037FC204670BD00004C0000202DE9FF5FB1
:102980008346DDE90E87994616468A469000FFF792
:10299000F5FA05001AD05020FFF7F0FA040012D023
:1029A00025630021CDE90241CDE900874B4632463F
:1029B00051465846FFF7E6F92046FFF7C3F80120D5
:1029C00004B0BDE8F09F2846FFF71EFC4FF0FF3033
:1029D000F6E700000548416919B1006B18B1002005
:1029E0007047012070470220704700004C00002013
:1029F0000148C068704700004C0000202DE9F041FC
:102A0000314F0026386B18B1B869401CB86152E0EC
:102A1000FD686D1CFD6013D1786B006838B15020E3
:102A200080F31188BFF34F8FBFF36F8FFEE7786B92
:102A3000B96B7963B863386A401C3862FFF71EFAD5
:102A4000B86ADFF88880854209D3786B006890B156
:102A5000786BC068C468606885420FD2B862386815
:102A6000C06A00EB800158F82100012800D9012636
:102A7000B86900B321E04FF0FF30EFE7201DFFF70A
:102A800049FBA06A18B104F11800FFF743FBE06AA4
:102A900001213A6981401143396100EB800108EB63
:102AA0008100211DFFF76FFBE06A3968C96A88421F
:102AB000CBD30126C9E7FFF73FFBF86900B1012638
:102AC0003046BDE8F08100004C000020AC0A002038
:102AD00070B504004FF0000041D0214D29688C42B0
:102AE00007D0502080F31188BFF34F8FBFF36F8F53
:102AF000FEE7616C71B1491E6164236CE26A9A421F
:102B00002DD000292BD1201DFFF704FB15490122F0
:102B100040B112E0502080F31188BFF34F8FBFF314
:102B20006F8FFEE7E06A00EB800351F8233023B992
:102B30002B6902FA00F083432B61206CE062C0F144
:102B40000500A061E06A2B6982401A432A6100EB0C
:102B5000800001EB8000211DFFF715FB012070BDF7
:102B60004C000020AC0A00202DE9F041C068C46888
:102B7000ACB104F118000746FFF7CCFA154D286BED
:102B80000126A0B139461448FFF7FDFAE06A29682A
:102B9000C96A88421CD90120EE61BDE8F08150204D
:102BA00080F31188BFF34F8FBFF36F8FFEE7201DB7
:102BB000FFF7B0FAE06A2A6906FA00F111432961C9
:102BC000054900EB80008C3901EB8000211DDBE71B
:102BD0000020E2E74C000020380B00202DE9F047F0
:102BE0002C4D00242746286B38B1FFF7D9FA286B03
:102BF000401E2863286B40B146E0502080F31188C6
:102C0000BFF34F8FBFF36F8FFEE7A86822490126FD
:102C1000D0B3A1F18C098846D8F80010E9B1D8F8F2
:102C20000C00C46804F11800FFF774FA201DFFF7C8
:102C300071FAE06A2A6906FA00F11143296100EB92
:102C4000800109EB8100211DFFF79DFAE06A2968E8
:102C5000C96A8842E0D3EE61DEE70CB1FFF70EF9F6
:102C6000AC693CB1FFF7CAFE00B1EE61641EF9D158
:102C70000020A861E86938B10849012738070860D1
:102C8000BFF34F8FBFF36F8FFFF7AAFA3846BDE847
:102C9000F08700004C000020380B002004ED00E01D
:102CA0003031323334353637383941424344454682
:102CB000000000004E6F6E653A20474E442F564389
:102CC000433F2053434C2F534441E698AFE590A631
:102CD000E68EA5E59CA820434F44452F6932633119
:102CE0005F626F6172642E6820E68980E98089E8FE
:102CF000849A3F0D0A0000005449503A206D616EDD
:102D00007920626F617264732068617665207E4FFE
:102D1000453B206D75737420746965204F452074A0
:102D20006F20474E4420746F20656E61626C652091
:102D300050574D206F75740D0A000000202050423E
:102D4000382F50423920E4B88E205042362F50425E
:102D50003720E4BA8CE98089E4B880EFBC8CE69433
:102D6000B920493243315F424F4152445F504238AB
:102D70005F50423920E5908EE9878DE7BC96E8AF39
:102D8000910D0A00A42D000800000020AC000000F6
:102D90006C180008502E0008AC000020CC8E0000FB
:102DA0007C18000800000000FF0000000000000088
:102DB0000000000000000000FFFFFFFF0000000017
:102DC00001000000000000000000000000000102FF
:102DD000030401020304060708090000007A030A3D
:102DE00000000000000000000102030406070809BB
:102DF00000000000000000000000000000000000D3
:102E000000000000000000000000000000000000C2
:102E100000000000000000000000000000000000B2
:102E200000000000000000000000000000000000A2
:102E30000000000000000000000000000000000092
:102E40000000000000000000AAAAAAAA00000000DA
:040000050800018965
:00000001FF
